:10000000008000101901000000000000BDB90000D0
:1000100041B9000079B9000095B900000000000066
:1000200000000000000000000000000000000000D0
:100030000000000000000000196F000031BB00004C
:10004000356F0000516F00006D6F0000896F000078
:10005000A56F0000C16F0000DD6F0000F96F0000A8
:1000600015700000317000004D70000069700000D4
:1000700085700000A1700000BD700000D970000004
:10008000F5700000117100002D7100004971000031
:1000900065710000817100009D710000B971000060
:1000A000D5710000F17100000D720000297200008E
:1000B00045720000617200007D72000099720000BC
:1000C000B572000010B5054C237833B9044B13B159
:1000D0000448AFF300800123237010BD0009001015
:1000E00000000000783C030008B5064B1BB1064831
:1000F0000649AFF300800648036813B1054B03B10E
:10010000984708BD00000000783C03000409001077
:100110000009001000000000684620F007018D462D
:1001200081B583B000AF1CF01FFC45F6E032C0F291
:10013000030240F20003C1F200039A421DD045F6CB
:10014000E033C0F203033B6040F20003C1F200035E
:100150007B600BE03B681A687B681A607B6803F180
:1001600004037B603B6803F104033B607A6840F65C
:100170000013C1F200039A42ECD342F2C872C0F2FB
:10018000030240F20003C1F200039A421DD042F282
:10019000C873C0F203033B6040F20003C1F20003E6
:1001A0007B600BE03B681A687B681A607B6803F130
:1001B00004037B603B6803F104033B607A6840F210
:1001C0000003C1F200039A42ECD340F60013C1F2DF
:1001D00000037B6007E07B684FF000021A607B68D9
:1001E00003F104037B607A6841F25C33C1F20003DF
:1001F0009A42F0D326F032FA07F060F9FEE700BF2A
:1002000080B487B000AFF860B9607A60FB687B614A
:10021000BB683B610BE03B691A787B691A707B69AC
:1002200003F101037B613B6903F101033B617B68DF
:10023000002B0CBF00230123DBB27A6802F1FF32EE
:100240007A60002BE7D107F11C07BD4680BC7047E0
:1002500080B487B000AFF860B9607A60FB687B61FA
:1002600007E0BB68DAB27B691A707B6903F10103AE
:100270007B617B68002B0CBF00230123DBB27A6813
:1002800002F1FF327A60002BEBD107F11C07BD466B
:1002900080BC704780B489B000AFF860B9607A6004
:1002A000FB68FB61BB68BB614FF000037B6100BF73
:1002B0007B68002B0CBF00230123DBB27A6802F1BC
:1002C000FF327A60002B16D0FB691B781A46BB6997
:1002D0001B78D31A7B617B69002B14BF0023012399
:1002E000DBB2FA6902F10102FA61BA6902F10102B4
:1002F000BA61002BDCD17B69184607F12407BD46A3
:1003000080BC704780B483B000AF7860396003E090
:100310007B6803F101037B607B681B78002B05D0B1
:100320007B681B781A463B689A42F1D17B681B7840
:10033000184607F10C07BD4680BC704780B584B0F5
:1003400000AF786039607B68DB6AFB60FA683B6805
:100350009A4255D07B681B79002B39D07B685A783C
:100360007B6803F1300310461946FA684FF0010329
:1003700010F0AEF90346002B02D04FF0010341E02C
:100380007B684FF000021A717B681A6A7B68DB6930
:10039000D218FB689A421BD97B68DB78FB7214E0A9
:1003A0007B68DB69FA68D318FB607B685A787B68E6
:1003B00003F1300310461946FA684FF0010310F0BC
:1003C00087F9FB7A03F1FF33FB72FB7A012BE7D845
:1003D0003B68002B14D07B685A787B6803F13003AC
:1003E000104619463A684FF0010310F05BF90346D6
:1003F000002B02D04FF0010304E07B683A68DA6218
:100400004FF00003184607F11007BD4680BD00BF3E
:1004100080B584B000AF786078684FF00001FFF7D6
:100420008DFF0346FB73FB7B002B40F0AB807B68AA
:100430001B78032B40F097807B685B79002B00F0E2
:1004400092807B684FF00002DA627B6803F1300330
:1004500018464FF000014FF40072FFF7F9FE7B6879
:100460004FF0550283F82E227B684FF0AA0283F8E2
:100470002F227B684FF0520283F830207B684FF0C8
:10048000520283F831207B684FF0610283F83220FA
:100490007B684FF0410283F833207B684FF0720293
:1004A00083F814227B684FF0720283F815227B6870
:1004B0004FF0410283F816227B684FF0610283F807
:1004C00017227B681B69DAB27B6883F818227B6885
:1004D0001B699BB24FEA13239BB2DAB27B6883F8A5
:1004E00019227B681B694FEA1343DAB27B6883F8F1
:1004F0001A227B681B694FEA1363DAB27B6883F8C0
:100500001B227B68DB68DAB27B6883F81C227B687D
:10051000DB689BB24FEA13239BB2DAB27B6883F8A5
:100520001D227B68DB684FEA1343DAB27B6883F8ED
:100530001E227B68DB684FEA1363DAB27B6883F8BC
:100540001F227B6859787B6803F130027B685B6906
:10055000084611461A464FF0010310F0B9F87B68BF
:100560004FF000025A717B685B7818464FF000012B
:100570004FF0000210F080F80346002B02D04FF03D
:100580000103FB73FB7B184607F11007BD4680BDD6
:1005900080B483B000AF786039603B68A3F1020398
:1005A0003B607B689B69A3F102023B689A4202D8D8
:1005B0004FF0000307E07B689B783A6802FB03F288
:1005C0007B689B6AD318184607F10C07BD4680BCB0
:1005D000704700BF80B586B000AF786039603B6877
:1005E000012B04D97B689A693B689A4202D84FF084
:1005F0000103B9E07B681B78022B53D0032B77D023
:10060000012B40F0AF803B687B617B694FEA53036D
:100610007A69D3187B617B681A6A7B694FEA532336
:10062000D31878681946FFF789FE0346002B40F07F
:1006300092807B694FEAC3534FEAD3537A68D31849
:1006400093F830303B617B6903F101037B617B6888
:100650001A6A7B694FEA5323D31878681946FFF763
:100660006DFE0346002B78D17B694FEAC3534FEAF6
:10067000D3537A68D31893F830304FEA03233A699A
:1006800013433B613B6803F00103DBB2002B03D053
:100690003B694FEA131304E03B694FEA03534FEA07
:1006A000135361E07B681A6A3B684FEA1323D3183F
:1006B00078681946FFF742FE0346002B4FD17B684E
:1006C00003F130023B684FEA43034FEAC3534FEA5A
:1006D000D353D318FB60FB6803F101031B784FEA87
:1006E00003239AB2FB681B7813439BB29BB23BE097
:1006F0007B681A6A3B684FEAD313D31878681946A7
:10070000FFF71CFE0346002B2BD17B6803F1300260
:100710003B684FEA83034FEAC3534FEAD353D318DE
:10072000FB60FB6803F103031B784FEA0362FB687D
:1007300003F102031B784FEA03431A43FB6803F1FA
:1007400001031B784FEA03231A43FB681B7813430A
:1007500023F0704308E000BF04E000BF02E000BFE8
:1007600000E000BF4FF0FF33184607F11807BD4601
:1007700080BD00BF80B588B000AFF860B9607A6016
:10078000BB68012B04D9FB689A69BB689A4203D8FD
:100790004FF00203FB7714E1FB681B78022B00F09B
:1007A0008180032B00F0A880012B40F0FB80BB6808
:1007B000BB61BB694FEA5303BA69D318BB61FB68DD
:1007C0001A6ABB694FEA5323D318F8681946FFF732
:1007D000B5FD0346FB77FB7F002B40F0E780FB680D
:1007E00003F13002BB694FEAC3534FEAD353D31826
:1007F0007B61BB6803F00103DBB2002B0ED07B6989
:100800001B78DBB203F00F03DAB27B68DBB24FEA8E
:100810000313DBB21343DBB2DBB201E07B68DBB274
:100820007A691370BB6903F10103BB61FB684FF088
:1008300001021A71FB681A6ABB694FEA5323D31885
:10084000F8681946FFF77AFD0346FB77FB7F002B1C
:1008500040F0AE80FB6803F13002BB694FEAC3533E
:100860004FEAD353D3187B61BB6803F00103DBB2BB
:10087000002B04D07B684FEA1313DBB20FE07B69D7
:100880001B78DBB223F00F03DAB27B684FEA132345
:10089000DBB203F00F03DBB21343DBB2DBB27A69E6
:1008A00013708AE0FB681A6ABB684FEA1323D318F7
:1008B000F8681946FFF742FD0346FB77FB7F002BE4
:1008C00078D1FB6803F13002BB684FEA43034FEA7B
:1008D000C3534FEAD353D3187B617B68DAB27B6989
:1008E0001A707B6903F101037A6892B24FEA12220F
:1008F00092B2D2B21A7060E0FB681A6ABB684FEA23
:10090000D313D318F8681946FFF718FD0346FB7791
:10091000FB7F002B50D1FB6803F13002BB684FEA2C
:1009200083034FEAC3534FEAD353D3187B617B69E8
:1009300003F103031B784FEA03627B6903F10203AF
:100940001B784FEA03431A437B6903F101031B78C9
:100950004FEA03231A437B691B78134303F0704368
:100960007A6813437B607B68DAB27B691A707B69B3
:1009700003F101037A6892B24FEA122292B2D2B224
:100980001A707B6903F102037A684FEA1242D2B20D
:100990001A707B6903F103037A684FEA1262D2B2DC
:1009A0001A700AE04FF00203FB7706E000BF04E094
:1009B00000BF02E000BF00E000BFFB684FF0010293
:1009C0001A71FB7F184607F12007BD4680BD00BFA6
:1009D00080B584B000AF786039603B68012B04D9E2
:1009E0007B689A693B689A4203D84FF00203FB7315
:1009F0003FE04FF00003FB7332E078683968FFF79F
:100A0000E9FDB860BB68002B30D0BB68012B03D177
:100A10004FF00203FB732CE0BB68B3F1FF3F03D13F
:100A20004FF00103FB7324E0786839684FF000024F
:100A3000FFF7A0FE0346FB73FB7B002B18D17B68FE
:100A40001B69B3F1FF3F09D07B681B6903F1010209
:100A50007B681A617B684FF001025A71BB683B608A
:100A60007B689A693B689A42C7D802E000BF00E001
:100A700000BFFB7B184607F11007BD4680BD00BFD5
:100A800080B586B000AF786039603B68002B0ED12E
:100A90007B68DB683B613B69002B04D07B689A690B
:100AA0003B699A4217D84FF001033B6113E0786825
:100AB0003968FFF78FFDB860BB68012B02D84FF093
:100AC00001036DE07B689A69BB689A4201D9BB68F3
:100AD00066E03B683B613B697B6100E000BF7B698E
:100AE00003F101037B617B689A697B699A4209D8AB
:100AF0004FF002037B617A693B699A4202D94FF059
:100B000000034DE078687969FFF764FDB860BB6861
:100B1000002B0FD0BB68B3F1FF3F02D0BB68012BA5
:100B200001D1BB683CE07A693B699A42D6D14FF06B
:100B3000000335E000BF786879696FF07042FFF715
:100B400019FE0346FB73FB7B002B09D13B68002B8E
:100B500006D0786839687A69FFF70CFE0346FB73A4
:100B6000FB7B002B12D17B687A69DA607B681B699A
:100B7000B3F1FF3F13D07B681B6903F1FF327B6841
:100B80001A617B684FF001025A7108E0FB7B012B70
:100B900002D14FF0FF3301E04FF001037B617B692D
:100BA000184607F11807BD4680BD00BF80B584B068
:100BB00000AF78600B467B807B687A88DA807B6840
:100BC0009B68FB60FB68012B05D07B681B689A69FA
:100BD000FB689A4202D84FF002036DE0FB68002BDD
:100BE00008D17B681B681B78032B03D17B681B68CB
:100BF0005B6AFB60FB68002B16D17B68FA68DA60E1
:100C00007B681B681B897A889A4202D34FF00203E3
:100C100052E07B681B685A6A7B884FEA13139BB2C9
:100C2000D2187B681A6139E07B681B689B784FEAB1
:100C300003137B811DE07B681B681846F968FFF78A
:100C4000C9FCF860FB68B3F1FF3F02D14FF001032C
:100C500032E0FB68012B05D97B681B689A69FB6849
:100C60009A4202D84FF0020326E07A887B89D31A91
:100C70007B807A887B899A42DDD27B68FA68DA6069
:100C80007B681B681846F968FFF782FC02467B8880
:100C90004FEA13139BB2D2187B681A617B681B68FA
:100CA00003F130027B8803F00F034FEA4313D2189D
:100CB0007B685A614FF00003184607F11007BD46E4
:100CC00080BD00BF90B585B000AF786039607B68AB
:100CD000DB8803F101033B813B89002B03D07B6858
:100CE0001B69002B02D14FF00403D3E03B8903F0D2
:100CF0000F039BB2002B40F0BC807B681B6903F1A3
:100D000001027B681A617B68DB68002B09D17B6874
:100D10001B681B893A899A42C0F0AB804FF00403EC
:100D2000B8E03B894FEA13139BB21A467B681B68F5
:100D30009B7803F1FF331340002B40F09A807B68CF
:100D40001A687B68DB6810461946FFF743FCF860B9
:100D5000FB68012B02D84FF002039BE0FB68B3F164
:100D6000FF3F02D14FF0010394E07B681B689A6952
:100D7000FB689A4271D83B68002B02D14FF0040304
:100D800088E07B681A687B68DB6810461946FFF7C5
:100D900077FEF860FB68002B02D14FF0070379E083
:100DA000FB68012B02D14FF0020373E0FB68B3F143
:100DB000FF3F02D14FF001036CE07B681B681846CF
:100DC0004FF00001FFF7BAFA0346002B02D04FF0B4
:100DD00001035FE07B681B6803F1300318464FF0A6
:100DE00000014FF40072FFF733FA7B681C687B68E0
:100DF0001B681846F968FFF7CBFB0346E3624FF028
:100E00000003FB721BE07B681B684FF001021A7144
:100E10007B681B6818464FF00001FFF78FFA034606
:100E2000002B02D04FF0010334E07B681B68DA6AC4
:100E300002F10102DA62FB7A03F10103FB727B68C3
:100E40001B689B78FA7A9A42DDD37B681B687A68C4
:100E50001268D16AFA7A8A1ADA627B68FA68DA600A
:100E60007B681B681846F968FFF792FB02467B68AF
:100E70001A617B683A89DA807B681B6803F130026B
:100E80003B8903F00F034FEA4313D2187B685A6182
:100E90004FF00003184607F11407BD4690BD00BF90
:100EA00080B485B000AF786039603B6803F11B0304
:100EB0001B784FEA03239AB23B6803F11A031B78AD
:100EC00013439BB29BB2FB607B681B78032B12D150
:100ED0003B6803F115031B784FEA03239AB23B6882
:100EE00003F114031B7813439BB29BB24FEA0343F5
:100EF000FA681343FB60FB68184607F11407BD4608
:100F000080BC704780B483B000AF786039607B6884
:100F100003F11A033A68D2B21A707B6803F11B031B
:100F20003A6892B24FEA122292B2D2B21A707B6839
:100F300003F114033A684FEA1242D2B21A707B6886
:100F400003F115033A684FEA124292B24FEA1222B5
:100F500092B2D2B21A7007F10C07BD4680BC70473E
:100F600080B586B000AF786039603B681B7823F0AD
:100F7000400303F1FF3213464FEA43039B184FEA45
:100F800083039B187B614FF000033B614FF001032B
:100F9000FB814FF2E853C0F202033A699B181B78B9
:100FA00003F101033A68D3181B784FEA03239AB27E
:100FB0004FF2E853C0F2020339695B181B783968B5
:100FC000CB181B7813439BB2BB81FB89002B1CD031
:100FD000BB89184602F082FC0346FB817B69FE2B2D
:100FE00010D87B694FEA43037A68D3181B887A6963
:100FF00002F101027A61184602F070FC0346FA8998
:101000009A420AD04FF0000324E0BA894FF6FF73EA
:101010009A4202D04FF000031CE03B6903F1010348
:101020003B613B690C2BB4D93B681B7803F0400350
:10103000002B0DD0FB89002B0AD07B694FEA4303BC
:101040007A68D3181B88002B02D04FF0000301E010
:101050004FF00103184607F11807BD4680BD00BFD9
:1010600080B487B000AF786039603B681B7803F0CC
:101070003F0303F1FF3213464FEA43039B184FEA45
:1010800083039B187B614FF000033B614FF001032A
:10109000FB814FF2E853C0F202033A699B181B78B8
:1010A00003F101033A68D3181B784FEA03239AB27D
:1010B0004FF2E853C0F2020339695B181B783968B4
:1010C000CB181B7813439BB2BB81FB89002B13D039
:1010D0007B69FE2B02D94FF0000332E07B694FEAB7
:1010E00043037A68D318BA89FA81FA891A807B692E
:1010F00003F101037B6107E0BA894FF6FF739A425F
:1011000002D04FF000031CE03B6903F101033B6197
:101110003B690C2BBDD93B681B7803F04003002BC7
:101120000DD07B69FE2B02D94FF0000309E07B69EB
:101130004FEA43037A68D3184FF000021A804FF049
:101140000103184607F11C07BD4680BC704700BF6D
:1011500080B489B000AFF860B960FA71BB71BB6848
:1011600003F10D03BA791A70BB6803F10B034FF05A
:101170000F021A70BB6803F10C034FF000021A70E3
:10118000BB6803F11A034FF000021A70BB6803F149
:101190001B034FF000021A70FB7903F1FF32134674
:1011A0004FEA43039B184FEA83039B18FB614FF000
:1011B0000003FB824FF00003BB61FA8A4FF6FF7316
:1011C0009A420AD0FB694FEA4303FA68D3181B8896
:1011D000FB82FB6903F10103FB614FF2E853C0F2AC
:1011E0000203BA699B181B78BA68D318FA8AD2B27C
:1011F0001A704FF2E853C0F20203BA699B181B78C9
:1012000003F10103BA68D318FA8A4FEA122292B2A4
:10121000D2B21A70FB8A002B02D14FF6FF73FB8209
:10122000BB6903F10103BB61BB690C2BC5D9FA8A09
:101230004FF6FF739A4207D0FB694FEA4303FA68FF
:10124000D3181B88002B03D1FB7943F04003FB71BB
:10125000BB68FA791A7007F12407BD4680BC704755
:1012600080B58AB000AFF860B9607A607B80F868BA
:10127000B9684FF00B02FEF7C3FF7B88052B13D92B
:101280007B884FEAC3329BB24FEA530313439AB2AF
:101290007B681B88D3187B807B6803F102037B602B
:1012A0007B681B88002BEBD14FF007033B627B88E8
:1012B000DBB203F00F03DBB203F1300387F8273012
:1012C00097F82730392B05D997F8273003F1070312
:1012D00087F8273007F114023B6AD31897F82720C4
:1012E0001A703B6A03F1FF333B627B884FEA1313AA
:1012F0007B807B88002BDAD107F114023B6AD3187C
:101300004FF07E021A704FF00003FB6103E0FB69AF
:1013100003F10103FB61FA693B6A9A4205D2FA685C
:10132000FB69D3181B78202BF1D1FA68FB69D2181E
:101330003B6A072B09D807F114013B6ACB181B78CD
:10134000396A01F10101396201E04FF020031370A5
:10135000FB6903F10103FB61FB69072BE5D907F189
:101360002807BD4680BD00BF80B485B000AF78605F
:101370004FF00003FB734FF00B03BB60FB7B4FEAA6
:10138000C312DBB24FEA53031343DAB27B681B7814
:10139000D318FB737B6803F101037B60BB6803F127
:1013A000FF33BB60BB68002BE8D1FB7B184607F11D
:1013B0001407BD4680BC704780B586B000AF78602A
:1013C00078684FF00001FFF7F1FB0346FB75FB7DEA
:1013D000002B01D0FB7DA2E04FF0FF033B753B7D6E
:1013E0007B757B681A687B681B6910461946FEF797
:1013F000A5FF0346FB75FB7D002B40F08A807B68D0
:101400005B693B613B691B78BB75BB7D002B03D1DE
:101410004FF00403FB7581E03B6903F10B031B787C
:1014200003F03F03FB73BB7DE52B07D0FB7B03F091
:101430000803002B06D0FB7B0F2B03D04FF0FF03DC
:101440007B755AE0FB7B0F2B32D17B68DB69002B6D
:1014500053D0BB7D03F04003002B0CD03B695B7B7A
:101460003B75BB7D23F04003BB75BB7D7B757B6803
:10147000DA887B681A84BA7D7B7D9A4214D13B69F5
:1014800003F10D031B783A7D9A420DD17B68DB692D
:1014900018463969FFF764FD0346002B04D07B7DB5
:1014A00003F1FF33DBB201E04FF0FF037B7524E073
:1014B0007B7D002B06D13869FFF756FF03463A7D46
:1014C0009A4228D04FF0FF037B757B684FF6FF727E
:1014D0001A847B689B6903F10B031B7803F00103FB
:1014E000002B0AD17B689B69386919464FF00B02C3
:1014F000FEF7D0FE0346002B0FD078684FF00001B6
:10150000FFF7E0FB0346FB75FB7D002B3FF469AF63
:1015100004E000BF02E000BF00E000BFFB7D184612
:1015200007F11807BD4680BD80B586B000AF786072
:101530004FF0FF037B754FF0FF033B754FF0040343
:10154000FB757DE07B681A687B681B69104619464D
:10155000FEF7F4FE0346FB75FB7D002B76D17B681E
:101560005B693B613B691B78BB75BB7D002B03D17D
:101570004FF00403FB756EE03B6903F10B031B782E
:1015800003F03F03FB73BB7DE52B0AD0BB7D2E2B05
:1015900007D0FB7B03F00803002B06D0FB7B0F2B4F
:1015A00003D04FF0FF037B7540E0FB7B0F2B2ED168
:1015B000BB7D03F04003002B0CD03B695B7B3B758C
:1015C000BB7D23F04003BB75BB7D7B757B68DA88F0
:1015D0007B681A84BA7D7B7D9A4214D13B6903F102
:1015E0000D031B783A7D9A420DD17B68DB69184662
:1015F0003969FFF735FD0346002B04D07B7D03F1ED
:10160000FF33DBB201E04FF0FF037B750EE07B7D23
:10161000002B06D13869FFF7A7FE03463A7D9A42B0
:1016200016D07B684FF6FF721A8411E078684FF08D
:101630000001FFF747FB0346FB75FB7D002B09D13B
:101640007B681B69002B7FF47DAF04E000BF02E0E4
:1016500000BF00E000BFFB7D002B03D07B684FF094
:1016600000021A61FB7D184607F11807BD4680BDD0
:1016700080B58CB000AF78607B689B697B627B68CB
:10168000DB693B6207F10C031846796A4FF00C02E4
:10169000FEF7B6FDFB7D03F00103DBB2002B3DD06E
:1016A0007B6A03F10B034FF000021A707B684FF066
:1016B0000002DA614FF00103BB8515E007F10C026F
:1016C000BB8D786A11463A6AFFF7CAFD7868FFF762
:1016D00073FE034687F82F3097F82F30002B07D181
:1016E000BB8D03F10103BB85BB8D632BE6D900E005
:1016F00000BFBB8D642B02D14FF007030BE197F8BD
:101700002F30042B02D097F82F3004E17B6A03F1CD
:101710000B03FA7D1A707B683A6ADA61FB7D03F08D
:101720000203002B1FD04FF000037B8503E07B8D6D
:1017300003F101037B857B8D4FEA43033A6AD3189B
:101740001B88002BF3D17B8D03F119024EF64F431A
:10175000C4F6C46383FB02134FEAA3014FEAE273AA
:10176000CB1A7B8502E04FF001037B8578684FF050
:101770000001FFF71BFA034687F82F3097F82F3048
:10178000002B02D097F82F30C5E04FF000033B85C7
:101790003B8DBB857B681A687B681B6910461946C0
:1017A000FEF7CCFD034687F82F3097F82F30002B3B
:1017B00028D17B685B691B78FB77FB7FE52B02D028
:1017C000FB7F002B0ED1BB8D002B02D17B68DB8809
:1017D0003B85BB8D03F10103BB85BA8D7B8D9A429E
:1017E00003D110E04FF00003BB8578684FF0010192
:1017F000FFF768FA034687F82F3097F82F30002B51
:10180000C8D000E000BF97F82F30002B4BD17B8D64
:10181000012B48D93B8D78681946FFF7C7F9034675
:1018200087F82F3097F82F30002B3CD17B689B69CD
:101830001846FFF799FD0346BB777B8D03F1FF3315
:101840007B857B681A687B681B6910461946FEF722
:1018500075FD034687F82F3097F82F30002B21D1E4
:101860007B68D8697B6859697B8DDAB2BB7FFFF7EB
:101870006FFC7B681B684FF001021A7178684FF0AB
:101880000001FFF71FFA034687F82F3097F82F3033
:10189000002B08D17B8D03F1FF337B857B8D002BE3
:1018A000CFD100E000BF97F82F30002B31D17B68FB
:1018B0001A687B681B6910461946FEF73FFD034610
:1018C00087F82F3097F82F30002B22D17B685B6987
:1018D000BB61B8694FF000014FF02002FEF7B8FC81
:1018E0007B689B69B86919464FF00B02FEF788FCCC
:1018F000BB6903F10C037A68926902F10B0212785A
:1019000002F01802D2B21A707B681B684FF0010215
:101910001A7197F82F30184607F13007BD4680BD81
:1019200080B584B000AF78607B68DB88BB817B6862
:101930001A8C4FF6FF739A4202D07B681B8C00E032
:10194000BB8978681946FFF731F90346FB73FB7BC7
:10195000002B2FD17B681A687B681B6910461946DB
:10196000FEF7ECFC0346FB73FB7B002B19D17B6875
:101970005B694FF0E5021A707B681B684FF001024B
:101980001A717B68DB88BA899A420CD978684FF063
:101990000001FFF797F90346FB73FB7B002BD9D0BF
:1019A00002E000BF00E000BFFB7B042B02D14FF040
:1019B0000203FB73FB7B184607F11007BD4680BD91
:1019C00080B58AB000AF786039603B681B683B61C6
:1019D00003E03B6903F101033B613B691B782F2B5B
:1019E000F7D03B691B785C2BF3D07B68DB69FB602D
:1019F0004FF000037B617B69BB613A69BB69D31817
:101A00001B78BB84BB6903F10103BB61BB8C1F2B3B
:101A100039D9BB8C2F2B36D0BB8C5C2B33D07B6958
:101A2000FE2B02D94FF00603A6E1BB8CDBB2BB84D0
:101A3000BB8C18464FF0010101F00CFF0346BB843C
:101A4000BB8C002B02D14FF0060395E1BB8C7F2BA2
:101A50000DD8BB8C4FF2F850C0F202001946FEF7C9
:101A600051FC0346002B02D04FF0060384E17B6952
:101A70004FEA4303FA68D318BA8C1A807B6903F1E2
:101A800001037B61B9E73A69BB69D2183B681A6008
:101A9000BB8C1F2B02D84FF0040301E04FF0000372
:101AA00087F8263012E07B6903F1FF334FEA4303E6
:101AB000FA68D3181B88BB84BB8C202B02D0BB8C4C
:101AC0002E2B07D17B6903F1FF337B617B69002BF0
:101AD000E9D100E000BF7B69002B02D14FF0060383
:101AE0004AE17B694FEA4303FA68D3184FF00002DA
:101AF0001A807B689B6918464FF020014FF00B025B
:101B0000FEF7A6FB4FF00003BB6103E0BB6903F1E6
:101B10000103BB61BB694FEA4303FA68D3181B8812
:101B2000202BF3D0BB694FEA4303FA68D3181B8814
:101B30002E2BEBD0BB69002B0AD097F8263043F050
:101B4000030387F8263003E07B6903F1FF337B61F1
:101B50007B69002B09D07B6903F1FF334FEA430314
:101B6000FA68D3181B882E2BEED14FF000033B628E
:101B70004FF0000387F827304FF00803FB61BB6983
:101B80004FEA4303FA68D3181B88BB84BB6903F18F
:101B90000103BB61BB8C002B00F09F80BB8C202B12
:101BA00006D0BB8C2E2B0AD1BA697B699A4206D02B
:101BB00097F8263043F0030387F826308CE03A6A22
:101BC000FB699A4203D2BA697B699A4226D1FB69C2
:101BD0000B2B06D197F8263043F0030387F8263005
:101BE0007EE0BA697B699A4205D097F8263043F0C7
:101BF000030387F82630BA697B699A426FD87B69FC
:101C0000BB614FF008033B624FF00B03FB6197F899
:101C100027304FEA830387F827305DE0BB8C7F2BAA
:101C200019D9BB8C18464FF0000101F013FE034692
:101C3000BB84BB8C002B08D0BB8CA3F180024FF27D
:101C40000C63C0F202039B5CBB8497F8263043F020
:101C5000020387F82630BB8C002B0AD0BB8C4FF2D6
:101C60000460C0F202001946FEF74CFB0346002B4D
:101C700009D04FF05F03BB8497F8263043F003038D
:101C800087F826301CE0BB8C402B09D9BB8C5A2B23
:101C900006D897F8273043F0020387F827300FE083
:101CA000BB8C602B0CD9BB8C7A2B09D897F82730CA
:101CB00043F0010387F82730BB8CA3F12003BB84DA
:101CC0007B689A693B6AD318BA8CD2B21A703B6AA5
:101CD00003F101033B6252E751E700BF00E000BFA0
:101CE0007B689B691B78E52B04D17B689B694FF06F
:101CF00005021A70FB69082B05D197F827304FEAC7
:101D0000830387F8273097F8273003F00C030C2B58
:101D100005D097F8273003F00303032B05D197F87C
:101D2000263043F0020387F8263097F8263003F078
:101D30000203002B17D197F8273003F00303012B80
:101D400005D197F8263043F0100387F8263097F82E
:101D5000273003F00C03042B05D197F8263043F00D
:101D6000080387F826307B689B6903F10B0397F81B
:101D700026201A704FF00003184607F12807BD46C9
:101D800080BD00BF80B584B000AF786039603B682B
:101D90001B782F2B03D03B681B785C2B03D13B684F
:101DA00003F101033B607B684FF000029A603B68DF
:101DB0001B781F2B0BD878684FF00001FEF7F6FE5A
:101DC0000346FB737B684FF000025A6146E03B46D6
:101DD00078681946FFF7F4FD0346FB73FB7B002B85
:101DE00035D17868FFF7E8FA0346FB737B689B6997
:101DF000DB7ABB73FB7B002B0BD0FB7B042B28D146
:101E0000BB7B03F00403002B25D14FF00503FB73CC
:101E100021E0BB7B03F00403002B1ED17B685B69D0
:101E2000BB60BB6803F10B031B7803F01003002BAE
:101E300003D14FF00503FB7310E07B681B68184665
:101E4000B968FFF72DF802467B689A60BFE700BFCC
:101E500004E000BF02E000BF00E000BFFB7B1846CB
:101E600007F11007BD4680BD80B582B000AF786035
:101E700039607B685A787B6803F130031046194655
:101E80003A684FF001030EF00DFC0346002B02D020
:101E90004FF0030356E07B6893F82F324FEA032399
:101EA0009AB27B6893F82E3213439BB21AB24AF669
:101EB0005523CFF6FF739A4202D04FF0020341E060
:101EC0007B6893F869304FEA03627B6893F8683067
:101ED0004FEA03431A437B6893F867304FEA0323C2
:101EE0001A437B6893F86630134323F07F4244F231
:101EF0004613C0F254039A4202D14FF0000321E08E
:101F00007B6893F885304FEA03627B6893F88430EE
:101F10004FEA03431A437B6893F883304FEA032365
:101F20001A437B6893F88230134323F07F4244F2D4
:101F30004613C0F254039A4202D14FF0000301E06D
:101F40004FF00103184607F10807BD4680BD00BFEA
:101F500080B592B000AFF860B9601346FB71FB68C2
:101F60001B68FB62FB6A1B78A3F130033B643B6C8C
:101F7000092B0DD8FB6A03F101031B783A2B07D11B
:101F8000FB6A03F10203FB62FB68FA6A1A6002E073
:101F90004FF000033B64BB684FF000021A603B6CDB
:101FA000022B02D94FF00B03CEE240F61C13C1F214
:101FB00000033A6C53F82230BB62BB6A002B02D19B
:101FC0004FF00C03C0E2BB68BA6A1A60BB6A1B78A8
:101FD000002B1CD0BB6A5B7818460EF03DFB034615
:101FE00087F8273097F8273003F00103002B0ED134
:101FF000FB79002B08D097F8273003F00403002B5F
:1020000002D04FF00A039FE24FF000039CE2BB6A4C
:102010004FF000021A703B6CDAB2BB6A5A70BB6AAE
:102020005B7818460EF008FB034687F8273097F8D0
:10203000273003F00103DBB2002B02D04FF0030383
:1020400082E2FB79002B08D097F8273003F00403D5
:10205000002B02D04FF00A0376E24FF00003FB633F
:10206000B86AF96BFFF700FF034687F8473097F827
:102070004730012B3FD14FF0000387F8463097F8E7
:102080004630002B05D097F8463003F1FF3387F830
:102090004630BB6A03F1300297F846304FEA03132B
:1020A00003F5DF73D3183B623B6A03F104031B782B
:1020B000002B20D03B6A03F10B031B784FEA03622D
:1020C0003B6A03F10A031B784FEA03431A433B6A56
:1020D00003F109031B784FEA03231A433B6A03F118
:1020E00008031B781343FB63B86AF96BFFF7BCFE68
:1020F000034687F8473097F84730032B02D14FF05B
:10210000010321E297F84730002B02D04FF00D0376
:102110001AE2BB6A93F83C304FEA03239AB2BB6AD7
:1021200093F83B3013439BB21BB2B3F5007F02D050
:102130004FF00D0308E2BB6A93F847304FEA0323E0
:102140009AB2BB6A93F8463013439BB29BB2BB630F
:10215000BB6B002B15D1BB6A93F857304FEA036273
:10216000BB6A93F856304FEA03431A43BB6A93F8AD
:1021700055304FEA03231A43BB6A93F85430134394
:10218000BB63BB6ABA6BDA61BB6A93F84030FB771A
:10219000BB6AFA7FDA70FB7F012B05D0FB7F022B35
:1021A00002D04FF00D03CFE1FA7FBB6B02FB03F3CC
:1021B000BB63BB6A93F83D30FB77BB6AFA7F9A70CA
:1021C000FB7F002B06D0FA7FFB7F03F1FF33134028
:1021D000002B02D04FF00D03B6E1BB6A93F84230FA
:1021E0004FEA03239AB2BB6A93F8413013439BB280
:1021F0009AB2BB6A1A81BB6A1B8903F00F039BB2B8
:10220000002B02D04FF00D039EE1BB6A93F84430DF
:102210004FEA03239AB2BB6A93F8433013439BB24D
:102220009BB27B637B6B002B15D1BB6A93F8533059
:102230004FEA0362BB6A93F852304FEA03431A43F2
:10224000BB6A93F851304FEA03231A43BB6A93F8F1
:10225000503013437B63BB6A93F83F304FEA03234C
:102260009AB2BB6A93F83E3013439BB2BB83BB8BDD
:10227000002B02D14FF00D0366E1BA8BBB6BD21875
:10228000BB6A1B894FEA13139BB2D318BB617A6BED
:10229000BB699A4202D24FF00D0355E17A6BBB69DC
:1022A000D21ABB6A9B78B2FBF3F37B617B69002B8C
:1022B00002D14FF00D0347E14FF0010387F847309B
:1022C0007A6940F6F5739A4203D94FF0020387F812
:1022D00047307A694FF6F5739A4203D94FF00303FA
:1022E00087F847307B6903F10202BB6A9A61FA6B97
:1022F000BB69D218BB6A9A62BA8BFB6BD218BB6AF5
:102300001A6297F84730032B23D1BB6A1B89002B35
:1023100002D04FF00D0317E1BB6A93F85F304FEA2C
:102320000362BB6A93F85E304FEA03431A43BB6A09
:1023300093F85D304FEA03231A43BB6A93F85C308D
:102340001A43BB6A5A62BB6A9B694FEA83033B63C9
:1023500023E0BB6A1B89002B02D14FF00D03F3E091
:10236000BB6A1A6ABB6BD218BB6A5A6297F84730CD
:10237000022B04D1BB6A9B694FEA43030CE0BB6AA2
:102380009A6913464FEA43039B184FEA5302BB6A0C
:102390009B6903F00103D3183B63BB6ADA693B6BAB
:1023A00003F2FF134FEA53239A4202D24FF00D0378
:1023B000CAE0BB6A4FF0FF321A61BB6A4FF00002FD
:1023C000DA6097F84730032B40F09C80BB6A4FF0EF
:1023D00000025A71BB6A93F861304FEA03239AB244
:1023E000BB6A93F8603013439BB29BB21A46FB6BF7
:1023F000D218BB6A5A61BB6A5978BB6A03F13002D2
:10240000BB6A5B69084611461A464FF001030EF09D
:1024100049F90346002B75D1BB6A93F82F324FEA76
:1024200003239AB2BB6A93F82E3213439BB21AB2BB
:102430004AF65523CFF6FF739A4263D1BB6A93F8ED
:1024400033304FEA0362BB6A93F832304FEA0343FA
:102450001A43BB6A93F831304FEA03231A43BB6A2D
:1024600093F830301A4345F25223C4F261139A4272
:1024700048D1BB6A93F817324FEA0362BB6A93F8FC
:1024800016324FEA03431A43BB6A93F815324FEAF8
:1024900003231A43BB6A93F814321A4347F2722398
:1024A000C6F241139A422DD1BB6A93F81F324FEA0C
:1024B0000362BB6A93F81E324FEA03431A43BB6AB6
:1024C00093F81D324FEA03231A43BB6A93F81C3278
:1024D0001A43BB6ADA60BB6A93F81B324FEA0362A5
:1024E000BB6A93F81A324FEA03431A43BB6A93F864
:1024F00019324FEA03231A43BB6A93F818321A437E
:10250000BB6A1A61BB6A97F847201A7040F6281315
:10251000C1F200031B8803F101039AB240F62813AD
:10252000C1F200031A8040F62813C1F200031A8892
:10253000BB6ADA80BB6A4FF00002DA62BB6A4FF016
:1025400000021A714FF00003184607F14807BD4614
:1025500080BD00BF80B584B000AF78607B68FB6051
:10256000FB681B68002B0BD0FB681B681B78002BDB
:1025700006D0FB681B68DA88FB689B889A4202D009
:102580004FF0090310E0FB681B685B7818460EF0FB
:1025900063F8034603F00103DBB2002B02D04FF0D7
:1025A000030301E04FF00003184607F11007BD4692
:1025B00080BD00BF80B485B000AF03463960FB71B9
:1025C000FB79022B02D94FF00B031FE0FA7940F69A
:1025D0001C13C1F2000353F82230FB60FB68002B90
:1025E00003D0FB684FF000021A703B68002B03D049
:1025F0003B684FF000021A70FA7940F61C13C1F2E2
:102600000003396843F822104FF00003184607F121
:102610001407BD4680BC704780B5ADF5147D00AF92
:1026200007F10C03186007F10803196007F10703AD
:102630001A7007F10C031B68002B02D14FF009033D
:10264000B9E107F10C031B684FF000021A6007F1B3
:10265000070307F10702127802F01F021A7007F150
:1026600007031B7823F00103DBB207F1080107F52C
:102670000772084611461A46FFF76AFC034687F8B8
:102680004F3297F84F32002B40F0938107F50473D7
:10269000C7F8343207F11003C7F8383207F10803DE
:1026A0001B6807F5077210461946FFF76BFB0346D8
:1026B00087F84F32D7F83032C7F8483297F84F32A0
:1026C000002B07D1D7F84832002B03D14FF0060377
:1026D00087F84F3207F107031B7803F01C03002B28
:1026E00000F0CF8097F84F32002B18D097F84F3278
:1026F000042B07D107F507731846FEF7B9FF034609
:1027000087F84F3207F1070307F10702127842F00A
:1027100008021A70D7F83032C7F8483218E0D7F8F4
:10272000483203F10B031B7803F01103002B04D094
:102730004FF0070387F84F320AE007F107031B78D1
:1027400003F00403002B03D04FF0080387F84F3247
:1027500097F84F32002B40F0BB8007F107031B783E
:1027600003F00803002B00F0B3800DF0C7FFC7F89B
:102770004402D7F8483203F10E03D7F84422D2B20C
:102780001A70D7F8483203F10F03D7F8442292B2F7
:102790004FEA122292B2D2B21A70D7F8483203F13D
:1027A0001003D7F844224FEA1242D2B21A70D7F877
:1027B000483203F11103D7F844224FEA1262D2B231
:1027C0001A70D7F8483203F10B034FF000021A7069
:1027D000D7F8483203F11C034FF000021A70D7F803
:1027E000483203F11D034FF000021A70D7F8483247
:1027F00003F11E034FF000021A70D7F8483203F1BC
:102800001F034FF000021A70D7F81C321846D7F891
:102810004812FEF745FBC7F84002D7F848024FF0D0
:102820000001FEF76FFBD7F81C324FF001021A715E
:10283000D7F84032002B4BD0D7F81C32DB6AC7F8F0
:102840004432D7F81C321846D7F84012FEF7C0F8C9
:10285000034687F84F3297F84F32002B38D1D7F81C
:102860001C32D7F8402202F1FF32DA60D7F81C326E
:102870001846D7F84412FDF761FD034687F84F323A
:1028800026E097F84F32002B22D1D7F8483203F1D7
:102890000B031B7803F01003002B04D04FF004034C
:1028A00087F84F3214E007F107031B7803F00203A7
:1028B000002B0DD0D7F8483203F10B031B7803F03F
:1028C0000103DBB2002B03D04FF0070387F84F3230
:1028D00097F84F32002B1BD107F107031B7803F049
:1028E0000803002B07D007F1070307F1070212784E
:1028F00042F020021A70D7F81C32DA6A07F10C0392
:102900001B68DA6107F10C031B68D7F848221A62CA
:1029100097F84F32002B4CD107F10C031B6807F1DD
:10292000070212789A71D7F81C321846D7F8481265
:10293000FEF7B6FA024607F10C031B681A61D7F8D6
:10294000483203F11F031B784FEA0362D7F848327D
:1029500003F11E031B784FEA03431A43D7F84832AA
:1029600003F11D031B784FEA03231A43D7F84832BB
:1029700003F11C031B781A4307F10C031B68DA6090
:1029800007F10C031B684FF000029A6007F10C037B
:102990001B684FF000029A61D7F81C2207F10C0364
:1029A0001B681A60D7F81C32DA8807F10C031B6821
:1029B0009A8097F84F32184607F51477BD4680BDC8
:1029C00080B58CB000AFF860B9607A603B60BB68DE
:1029D0003B623B684FF000021A60F868FFF7BAFDEF
:1029E0000346FB77FB7F002B01D0FB7F54E1FB68A4
:1029F0009B79DBB25BB2002B02DA4FF002034BE1B2
:102A0000FB689B7903F00103002B02D14FF0070311
:102A100042E1FB68DA68FB689B68D31ABB617A689D
:102A2000BB699A4240F23281BB697B602EE1FB6850
:102A30009B684FEAC3534FEAD353002B40F0F48016
:102A4000FB689B684FEA5323DAB2FB681B689B78EC
:102A500003F1FF33DBB21340FB75FB7D002B2ED15E
:102A6000FB689B68002B03D1FB681B69FB6208E0D5
:102A7000FB681A68FB685B6910461946FDF7AAFDFA
:102A8000F862FB6A012B09D8FB689B7963F07F032E
:102A9000DAB2FB689A714FF00203FDE0FB6AB3F112
:102AA000FF3F09D1FB689B7963F07F03DAB2FB68D3
:102AB0009A714FF00103EFE0FB68FA6A5A61FB6814
:102AC0001A68FB685B6910461946FDF761FD3861BD
:102AD0003B69002B09D1FB689B7963F07F03DAB275
:102AE000FB689A714FF00203D6E0FB7D3A69D31878
:102AF0003B617B684FEA53237B627B6A002B48D0A3
:102B0000FA7D7B6AD218FB681B689B789A4206D9CB
:102B1000FB681B689B781A46FB7DD31A7B62FB68B7
:102B20001B685A787B6ADBB21046396A3A690DF045
:102B3000B9FD0346002B09D0FB689B7963F07F0346
:102B4000DAB2FB689A714FF00103A5E0FB689B794C
:102B500003F04003002B17D0FB689A693B69D21A37
:102B60007B6A9A4210D2FB689A693B69D31A4FEA92
:102B700043233A6AD218FB6803F12403104619462E
:102B80004FF40072FDF73CFB7B6A4FEA4323BB62C4
:102B900068E0FB689A693B699A4242D0FB689B797E
:102BA00003F04003002B22D0FB681B685978FB68B8
:102BB00003F12402FB689B69084611461A464FF050
:102BC00001030DF085FD0346002B09D0FB689B79BE
:102BD00063F07F03DAB2FB689A714FF001035BE0A8
:102BE000FB689B7923F04003DAB2FB689A71FB68BB
:102BF0001B685A78FB6803F12403104619463A69AA
:102C00004FF001030DF04EFD0346002B09D0FB6889
:102C10009B7963F07F03DAB2FB689A714FF001038E
:102C20003AE0FB683A699A61FB689B684FEAC353D4
:102C30004FEAD353C3F50073BB62BA6A7B689A420A
:102C400001D97B68BB62FB6803F12402FB689B68C7
:102C50004FEAC3534FEAD353D318386A1946BA6AB6
:102C6000FDF7CEFA3A6ABB6AD3183B62FB689A68F2
:102C7000BB6AD218FB689A603B681A68BB6AD218B4
:102C80003B681A607A68BB6AD31A7B607B68002B4A
:102C90007FF4CDAE4FF00003184607F13007BD4674
:102CA00080BD00BF80B58AB000AFF860B9607A60BF
:102CB0003B60BB68BB613B684FF000021A60F8687C
:102CC000FFF748FC0346FB75FB7D002B01D0FB7D25
:102CD00086E1FB689B79DBB25BB2002B02DA4FF036
:102CE00002037DE1FB689B7903F00203002B02D114
:102CF0004FF0070374E1FB68DA687B68D218FB6861
:102D0000DB689A4280F053814FF000037B604EE114
:102D1000FB689B684FEAC3534FEAD353002B40F044
:102D20000D81FB689B684FEA5323DAB2FB681B688E
:102D30009B7803F1FF33DBB21340BB75BB7D002BE7
:102D400040D1FB689B68002B11D1FB681B697B623B
:102D50007B6A002B14D1FB681B6818464FF00001FA
:102D6000FDF78EFE7862FB687A6A1A6108E0FB68FC
:102D70001A68FB685B6910461946FDF781FE7862A8
:102D80007B6A002B00F018817B6A012B09D1FB685C
:102D90009B7963F07F03DAB2FB689A714FF002030C
:102DA0001EE17B6AB3F1FF3F09D1FB689B7963F0B9
:102DB0007F03DAB2FB689A714FF0010310E1FB6800
:102DC0007A6A5A61FB689B7903F04003002B22D09A
:102DD000FB681B685978FB6803F12402FB689B6958
:102DE000084611461A464FF001030DF071FC0346E8
:102DF000002B09D0FB689B7963F07F03DAB2FB6894
:102E00009A714FF00103EBE0FB689B7923F04003DC
:102E1000DAB2FB689A71FB681A68FB685B69104656
:102E20001946FDF7B5FB38613B69002B09D1FB68FA
:102E30009B7963F07F03DAB2FB689A714FF002036B
:102E4000CEE0BB7D3A69D3183B617B684FEA5323E0
:102E5000FB61FB69002B49D0BA7DFB69D218FB6886
:102E60001B689B789A4206D9FB681B689B781A46B8
:102E7000BB7DD31AFB61FB681B685A78FB69DBB228
:102E80001046B9693A690DF023FC0346002B09D0BE
:102E9000FB689B7963F07F03DAB2FB689A714FF0AD
:102EA00001039DE0FB689A693B69D21AFB699A426B
:102EB00017D2FB6803F12402FB6899693B69CB1ABE
:102EC0004FEA4323B969CB18104619464FF40072F4
:102ED000FDF796F9FB689B7923F04003DAB2FB68B3
:102EE0009A71FB694FEA43233B624CE0FB689A69A5
:102EF0003B699A421FD0FB689A68FB68DB689A427C
:102F000019D2FB681B685A78FB6803F1240310464A
:102F100019463A694FF001030DF0C4FB0346002B3C
:102F200009D0FB689B7963F07F03DAB2FB689A7182
:102F30004FF0010354E0FB683A699A61FB689B68B3
:102F40004FEAC3534FEAD353C3F500733B623A6A67
:102F50007B689A4201D97B683B62FB6803F12402DB
:102F6000FB689B684FEAC3534FEAD353D318184604
:102F7000B9693A6AFDF744F9FB689B7943F040036D
:102F8000DAB2FB689A71BA693B6AD318BB61FB6815
:102F90009A683B6AD218FB689A603B681A683B6A79
:102FA000D2183B681A607A683B6AD31A7B607B68E8
:102FB000002B7FF4ADAE00E000BFFB689A68FB68B1
:102FC000DB689A4203D9FB689A68FB68DA60FB68A1
:102FD0009B7943F02003DAB2FB689A714FF000034B
:102FE000184607F12807BD4680BD00BF80B586B0F2
:102FF00000AF78607868FFF7ADFA0346FB75FB7D9C
:10300000002B40F0B0807B689B7903F02003002BFD
:1030100000F0A9807B689B7903F04003002B1BD054
:103020007B681B6859787B6803F124027B689B6985
:10303000084611461A464FF001030DF049FB0346BE
:10304000002B02D04FF001038EE07B689B7923F0C8
:103050004003DAB27B689A717B681A687B68DB6927
:1030600010461946FDF76AF90346FB75FB7D002BF8
:1030700079D17B681B6A3B613B6903F10B033A69B9
:1030800002F10B02127842F02002D2B21A703B69B0
:1030900003F11C037A68D268D2B21A703B6903F15B
:1030A0001D037A68D26892B24FEA122292B2D2B26B
:1030B0001A703B6903F11E037A68D2684FEA124224
:1030C000D2B21A703B6903F11F037A68D2684FEAE3
:1030D0001262D2B21A707B681B6938691946FDF713
:1030E00011FF0DF00BFBF8603B6903F11603FA6862
:1030F000D2B21A703B6903F11703FA6892B24FEA31
:10310000122292B2D2B21A703B6903F11803FA6824
:103110004FEA1242D2B21A703B6903F11903FA68FE
:103120004FEA1262D2B21A703B6903F112034FF0F8
:1031300000021A703B6903F113034FF000021A708A
:103140007B689B7923F02003DAB27B689A717B68F5
:103150001B684FF001021A717B681B681846FDF767
:1031600057F90346FB75FB7D184607F11807BD4666
:1031700080BD00BF80B584B000AF78607868FFF78D
:1031800035FF0346FB73FB7B002B03D17B684FF0BD
:1031900000021A60FB7B184607F11007BD4680BD90
:1031A00080B588B000AF786039607868FFF7D2F9F1
:1031B0000346FB75FB7D002B01D0FB7D57E17B684F
:1031C0009B79DBB25BB2002B02DA4FF002034EE1D7
:1031D0007B68DA683B689A4208D27B689B7903F087
:1031E0000203002B02D17B68DB683B607B689B6835
:1031F0003B614FF00003BB617B68BA699A603B6832
:10320000002B00F0CF807B681B689B784FEA43233C
:10321000FB603B69002B1FD03B6803F1FF32FB686A
:10322000B2FBF3F23B6903F1FF31FB68B1FBF3F34F
:103230009A4211D33B6903F1FF32FB68C3F10003EB
:103240001A407B689A607B689B683A68D31A3B6037
:103250007B685B69FB612EE07B681B69FB61FB6936
:10326000002B25D17B681B6818464FF00001FDF745
:1032700007FCF861FB69012B09D17B689B7963F03E
:103280007F03DAB27B689A714FF00203EFE0FB69CB
:10329000B3F1FF3F09D17B689B7963F07F03DAB21A
:1032A0007B689A714FF00103E1E07B68FA691A616B
:1032B0007B68FA695A61FB69002B73D047E07B6831
:1032C0009B7903F00203002B0CD07B681B68184627
:1032D000F969FDF7D5FBF861FB69002B09D1FB68A3
:1032E0003B6038E07B681B681846F969FDF772F9A6
:1032F000F861FB69B3F1FF3F09D17B689B7963F00B
:103300007F03DAB27B689A714FF00103AFE0FB698B
:10331000012B05D97B681B689A69FB699A4209D819
:103320007B689B7963F07F03DAB27B689A714FF018
:1033300002039CE07B68FA695A617B689A68FB68C3
:10334000D2187B689A603A68FB68D31A3B603A6887
:10335000FB689A42B3D87B689A683B68D2187B684E
:103360009A603B684FEAC3534FEAD353002B19D0FE
:103370007B681B681846F969FDF70AF9B861BB69F3
:10338000002B09D17B689B7963F07F03DAB27B68FD
:103390009A714FF002036AE03B684FEA5323BA691F
:1033A000D318BB617B689B684FEAC3534FEAD35382
:1033B000002B4AD07B689A69BB699A4245D07B68EA
:1033C0009B7903F04003002B22D07B681B6859785F
:1033D0007B6803F124027B689B69084611461A4604
:1033E0004FF001030DF074F90346002B09D07B6800
:1033F0009B7963F07F03DAB27B689A714FF0010327
:1034000035E07B689B7923F04003DAB27B689A71E0
:103410007B681B685A787B6803F1240310461946C1
:10342000BA694FF001030DF03DF90346002B09D0B6
:103430007B689B7963F07F03DAB27B689A714FF007
:10344000010314E07B68BA699A617B689A687B68BB
:10345000DB689A420AD97B689A687B68DA607B6885
:103460009B7943F02003DAB27B689A71FB7D1846A2
:1034700007F12007BD4680BD80B5ADF51A7D00AFD0
:1034800007F10403186007F1040207F50E731046F4
:1034900019464FF00102FEF75BFD034687F86732DD
:1034A00097F86732002B40F0B18007F50273C7F838
:1034B000503207F10803C7F8543207F104031B68C0
:1034C00007F50E7210461946FEF75CFC034687F8B6
:1034D000673297F86732002B40F09880D7F84C326B
:1034E000C7F86032D7F86032002B04D14FF00603E2
:1034F00087F867320DE0D7F8603203F10B031B78D1
:1035000003F00103DBB2002B03D04FF0070387F871
:103510006732D7F838321846D7F86012FDF7C0FC8A
:10352000C7F85C0297F86732002B45D1D7F86032B4
:1035300003F10B031B7803F01003002B3CD0D7F8EA
:103540005C32012B04D84FF0020387F8673233E076
:1035500007F5057207F50E73104619464FF0240261
:10356000FCF74EFED7F85C32C7F81C3207F505733E
:1035700018464FF00201FDF719FB034687F8673242
:1035800097F86732002B17D107F505731846FDF73A
:10359000CBFF034687F8673297F86732002B03D1D9
:1035A0004FF0070387F8673297F86732042B03D18F
:1035B0004FF0000387F8673297F86732002B25D168
:1035C00007F50E731846FEF7ABF9034687F8673226
:1035D00097F86732002B19D1D7F85C32002B09D04D
:1035E000D7F838321846D7F85C12FDF7F1F90346E0
:1035F00087F8673297F86732002B07D1D7F838324F
:103600001846FCF705FF034687F8673297F86732DC
:10361000184607F51A77BD4680BD00BF90B5ADF5D9
:10362000217D00AF07F1040318603B46196007F1E4
:10363000040207F51473104619464FF00102FEF715
:1036400087FC034687F87F3297F87F32002B40F0E3
:10365000FA80D7F85032C7F82C3207F50273C7F852
:10366000683207F10803C7F86C3207F104031B68DE
:1036700007F5147210461946FEF784FB034687F8D7
:103680007F3297F87F32002B40F0DD80D7F864322C
:10369000002B04D14FF0040387F87F32D3E0D7F832
:1036A000643203F10B0307F50572104619464FF01B
:1036B0001502FCF7A5FD07F50B7207F5147310460C
:1036C00019464FF02402FCF79BFD07F50B723B46B1
:1036D00010461968FEF756FB034687F87F3297F8C5
:1036E0007F32002B03D14FF0080387F87F3297F821
:1036F0007F32042B40F0A78007F50B731846FDF7C7
:10370000B7FF034687F87F3297F87F32002B40F0EF
:103710009A80D7F84032C7F87832D7F8783203F178
:103720000D0207F5057303F10203104619464FF029
:103730001302FCF765FDD7F8783203F10B0397F815
:10374000142242F02002D2B21A70D7F850324FF051
:1037500001021A71D7F85822D7F834329A425AD057
:10376000D7F8783203F10B031B7803F01003002B1A
:1037700051D0D7F85042D7F850321846D7F87812BF
:10378000FDF78EFB034620461946FCF701FFC7F8FC
:103790007402D7F87432002B04D14FF0020387F87B
:1037A0007F3238E0D7F850321846D7F87412FCF759
:1037B000C5FD034687F87F32D7F8503203F1500336
:1037C000C7F8783297F87F32002B24D1D7F87832B7
:1037D00003F101031B782E2B1DD1D7F850321B7833
:1037E000032B06D1D7F83422D7F850325B6A9A42BD
:1037F00002D0D7F8343201E04FF00003C7F874323A
:10380000D7F87802D7F87412FDF77CFBD7F850325E
:103810004FF001021A7197F87F32002B13D107F590
:1038200014731846FEF77CF8034687F87F3297F842
:103830007F32002B07D1D7F850321846FCF7E8FD4D
:10384000034687F87F3297F87F32184607F52177CD
:10385000BD4690BD80B485B000AF03463960FB80A3
:10386000FB887F2B02D8FB88FB8130E03B68002B74
:1038700010D0FB88FF2B09D8FB88A3F180024FF200
:103880008C63C0F2020333F8123001E04FF0000302
:10389000FB811CE04FF00003FB810DE0FA894FF241
:1038A0008C63C0F2020333F81230FA889A4207D0D0
:1038B000FB8903F10103FB81FB897F2BEED900E03B
:1038C00000BFFB8903F180039BB2DBB2FB81FB8964
:1038D000184607F11407BD4680BC704780B485B018
:1038E00000AF0346FB804FF00003FB6003E0FB6882
:1038F00003F10103FB604FF28C73C0F20203FA681C
:1039000033F81230002B09D04FF28C73C0F202034F
:10391000FA6833F81230FA889A42E8D14FF28C7381
:10392000C0F20203FA6833F81230002B07D04FF6CA
:103930006C13C0F20203FA6833F8123000E0FB881F
:10394000184607F11407BD4680BC704780B582B0A9
:1039500000AF7860786803F0D7F90346184607F19E
:103960000807BD4680BD00BF80B584B000AFF860D9
:10397000B9607A603B60FB68BA681A60FB687A6875
:103980005A60FB683A689A6078684FF0000103F06B
:1039900083FD38684FF0000103F07EFDF86800F009
:1039A00013F8FB68184607F11007BD4680BD00BF3D
:1039B00080B582B000AF7860786800F005F807F154
:1039C0000807BD4680BD00BF80B584B000AF7860F9
:1039D0004FF00003FB737B685B6818464FF00101F2
:1039E00003F05AFD7B689B6818464FF0010103F015
:1039F00053FD4FF00803BB7330E04FF0010001F0BE
:103A00004BFD7B685B6818464FF0000103F044FDF6
:103A10004FF0010001F040FD7B685B6818464FF0F5
:103A2000010103F039FD4FF0010001F035FD7B6825
:103A30001B681846FFF78AFF0346002B0AD0BB7BA2
:103A400003F1FF334FF0010202FA03F3DAB2FB7B1A
:103A5000D318FB73BB7B03F1FF33BB73BB7B002B22
:103A60000CBF00230123DBB2002BC6D17B689B680F
:103A700018464FF0000103F00FFD7B685B681846A5
:103A80004FF0000103F008FD7B68FA7B1A7307F121
:103A90001007BD4680BD00BF80B584B000AFF860A0
:103AA000B9607A60F868B9687A6823F05BF9034610
:103AB000184607F11007BD4680BD00BF80B483B033
:103AC00000AF786039603B68184607F10C07BD46C7
:103AD00080BC704780B483B000AF7860396007F174
:103AE0000C07BD4680BC704780B582B000AF7860DF
:103AF0007B68184600F082FB7B68184607F10807D0
:103B0000BD4680BD80B582B000AF786039607B680B
:103B1000184619F0CBFA7B6803F10403184600F04D
:103B200051FB7B681846396819F024FC7B681846FD
:103B300007F10807BD4680BD7B6803F10403184602
:103B4000FFF7D2FFFFE77B68184619F01BFB19F05F
:103B500067FD00BFB0B58AB000AF78607B681846DB
:103B600019F0AEFA034618464FF64C31C0F2020186
:103B700022F032F803463B623B6A002B1AD140F236
:103B80001803C1F200031B68DD687B68184619F052
:103B900097FA03461C4621F005FD03461B6828469C
:103BA0004FF65031C0F20201224622F031F84FF0B8
:103BB000FF33ABE04FF000037B624FF480701AF0EC
:103BC000A5FB0346FB6188E0FB691B78232B7FD0B4
:103BD000FB691B780A2B7DD0FB691B780D2B79D0F4
:103BE000F8694FF67831C0F2020125F0ADFAB861FC
:103BF000BB69002B70D007F11003184619F050FA7A
:103C000007F10C0207F110031046B9691A4619F0C2
:103C1000F3FC07F11003184619F044FA4FF00000C6
:103C20004FF67831C0F2020125F08EFAB861BB6917
:103C3000002B47D007F11403184619F031FA07F1A9
:103C4000080207F114031046B9691A4619F0D4FCAA
:103C500007F11403184619F025FA7B6803F10402F2
:103C600007F10C031046194600F0FEFA03461A4607
:103C700007F108031046194619F086FC7B6A03F128
:103C800001037B6240F21803C1F200031B68DD6888
:103C900007F10C03184619F013FA03461C4607F106
:103CA0000803184619F00CFA034628464FF68031EF
:103CB000C0F20201224621F0ABFF07F108031846CB
:103CC00019F060FA07F10C03184619F05BFA04E0EA
:103CD00000BF02E000BF00E000BFF8694FF4807150
:103CE0003A6A21F007FE0346002B0CBF0023012394
:103CF000DBB2002B7FF468AFFB69002B02D0F869C0
:103D000019F056FD386A21F099FC7B6A184607F1D4
:103D10002807BD46B0BD07F11003184619F0C2F9D7
:103D200019F07EFC07F11403184619F0BBF905E001
:103D300007F10803184619F025FAFFE707F10C030D
:103D4000184619F01FFA19F06BFC00BFB0B588B027
:103D500000AF78600B46FB707B68184619F0B0F92D
:103D600003461A46FB78002B02D040F2012301E003
:103D700040F601231046194626F07CFB0346BB6142
:103D8000BB69002B1EDA40F21803C1F200031B6866
:103D9000DD687B68184619F093F903461C4621F04C
:103DA00001FC03461B68184624F026F80346284603
:103DB0004FF69031C0F20201224621F029FF4FF068
:103DC000FF3375E0B8694FF6B431C0F2020121F05B
:103DD00061FC03467B617B69002B1ED140F2180316
:103DE000C1F200031B68DD687B68184619F068F9AA
:103DF00003461C4621F0D6FB03461B68184623F0F9
:103E0000FBFF034628464FF69031C0F202012246DE
:103E100021F0FEFE4FF0FF334AE04FF00003FB615C
:103E20007B6803F10403184600F08EFA0346FB603A
:103E300027E007F10C03184600F0B6FA03461846CF
:103E400019F03EF903461C4607F10C03184600F032
:103E5000ABFA034603F10403184619F031F903469F
:103E600078694FF6B831C0F20201224621F0D0FE47
:103E700007F10C03184600F0A9FAFB6903F10103EE
:103E8000FB617B6803F10403184600F06BFA0346FC
:103E90003B6107F10C0207F110031046194600F0D0
:103EA0006FFA0346002BC4D1786921F0C7FBFB6988
:103EB000184607F12007BD46B0BD00BF80B584B0ED
:103EC00000AFF860B9607A60BB6803F1040318467C
:103ED000796800F0C9F90346F868194619F00AFB39
:103EE000F86807F11007BD4680BD00BF90B58FB0E0
:103EF00000AFF860B9607A60FB6803F1040318460C
:103F0000B96800F0B1F903461846796819F03CFB2E
:103F1000FB6807F11802104619464FF6C432C0F28A
:103F2000020200F065FAFB68184619F0C9F803466A
:103F300018464FF64C31C0F2020121F04DFE034607
:103F40003B633B6B002B00F0158107F1180318460B
:103F500019F0B6F8034618464FF6B431C0F2020124
:103F600021F03AFE0346FB62FB6A002B00F002815F
:103F70004FF480701AF0CAF90346BB624FF0000399
:103F800087F837308CE0BB6A1B78232B07D0BB6ADD
:103F90001B780D2B03D0BB6A1B780A2B04D1B86A9F
:103FA000F96A21F099FE7BE0B86A4FF67831C0F2E9
:103FB000020125F0C9F8786207F11C03184619F0D0
:103FC0006FF807F1140207F11C031046796A1A46CC
:103FD00019F012FB07F11C03184619F063F84FF0B3
:103FE00000004FF67831C0F2020125F0ADF878629A
:103FF00007F12003184619F053F807F1100207F1F2
:1040000020031046796A1A4619F0F6FA07F12003E0
:10401000184619F047F807F114031846B96800F07C
:1040200001FA0346002B15D007F11403184619F0C6
:1040300047F803461C4607F11003184619F040F8EC
:104040000346F86A4FF6B831C0F20201224621F069
:10405000DFFD1BE097F8373083F00103DBB2002B64
:1040600014D0B86819F02CF803461C46786819F08B
:1040700027F80346F86A4FF6B831C0F2020122462B
:1040800021F0C6FD4FF0010387F8373007F1100328
:10409000184619F077F807F11403184619F072F86A
:1040A000B86A4FF480713A6B21F024FC0346002B70
:1040B0000CBF00230123DBB2002B7FF464AF97F821
:1040C000373083F00103DBB2002B10D0B86818F052
:1040D000F7FF03461C46786818F0F2FF0346F86ABB
:1040E0004FF6B831C0F20201224621F091FDB86AC4
:1040F0001AF050F8386B21F0A1FAF86A21F09EFA14
:10410000FB68184618F0DCFF0346184623F0F6FA61
:104110000346002B0CBF00230123DBB2002B08D089
:10412000FB68184618F0CCFF0346184622F066FFDD
:1041300020E007F11803184618F0C2FF03461C469A
:10414000FB68184618F0BCFF03462046194609F0E4
:104150007FFA0346002B0CBF00230123DBB2002BA8
:1041600008D007F11803184618F0AAFF03461846AE
:1041700022F044FF07F11803184619F003F807F17D
:104180003C07BD4690BD07F11C03184618F08AFF96
:1041900011E007F12003184618F084FF05E007F14D
:1041A0001003184618F0EEFFFFE707F11403184656
:1041B00018F0E8FFFFE707F11803184618F0E2FFD0
:1041C00019F02EFA80B582B000AF78607B6818468F
:1041D00000F03AF97B68184607F10807BD4680BD34
:1041E00080B582B000AF7860786800F03BF97B68FA
:1041F000184607F10807BD4680BD00BF80B582B0F4
:1042000000AF7860786800F05FF903467868194677
:1042100000F036F97B681846FFF7E2FF7B68184626
:1042200007F10807BD4680BD7B681846FFF7D8FF39
:1042300019F0F6F980B582B000AF78607B6803F1C1
:104240000403184618F09EFF7B68184618F09AFF82
:104250007B68184607F10807BD4680BD7B68184695
:1042600018F090FF19F0DCF980B588B000AF7860E5
:1042700039607868396800F033F90346BB607868C4
:1042800000F070F80346FB6007F1080207F10C0329
:104290001046194600F060F90346002B12D17868E9
:1042A00000F02EF907F10803184600F037F903462D
:1042B00007F11002104639681A4600F03DF903462E
:1042C000002B02D04FF0010301E04FF00003002B60
:1042D00020D007F11C03184618F0E8FE07F114027D
:1042E00007F11C03104639681A4600F049F907F136
:1042F00014037868B9681A4600F060F90346BB6099
:1043000007F114031846FFF795FF07F11C03184641
:1043100018F038FF07F10803184600F0FFF80346CD
:1043200003F10403184607F12007BD4680BD07F1DD
:1043300014031846FFF77EFFFFE707F11C0318463A
:1043400018F020FF19F06CF980B582B000AF7860EA
:104350007B68184600F04CF90346184607F1080739
:10436000BD4680BD80B582B000AF78607B681846DE
:1043700000F050F90346184607F10807BD4680BD16
:1043800080B483B000AF786039607B681A683B689E
:104390001B689A420CBF00230123DBB2184607F1C9
:1043A0000C07BD4680BC704780B582B000AF786016
:1043B0007B681B6803F11003184600F03FF90346C1
:1043C000184607F10807BD4680BD00BF80B582B022
:1043D00000AF78607B681B68184618F0B9FD02468C
:1043E0007B681A607B68184607F10807BD4680BDE8
:1043F00080B584B000AFF860B9607A60F868B968D9
:1044000019F078F8F868796819F066F804E0F86847
:1044100018F0B8FE19F004F9F86807F11007BD4666
:1044200080BD00BF80B582B000AF78603960786829
:10443000396800F00FF9034683F00103DBB2184638
:1044400007F10807BD4680BD80B582B000AF786037
:104450007B68184600F02EF97B68184607F10807BC
:10446000BD4680BD80B582B000AF7860786800F04E
:1044700045F97B68184607F10807BD4680BD00BFB7
:1044800080B584B000AF7860396011E0386800F022
:1044900041F9034678681946FFF7F2FF386800F0E3
:1044A00045F9F8607868396800F04CF9FB683B60C2
:1044B0003B68002B0CBF00230123DBB2002BE5D1AE
:1044C00007F11007BD4680BD80B483B000AF7860AF
:1044D0007B689B68184607F10C07BD4680BC704797
:1044E00080B582B000AF786039607B681846396863
:1044F00000F054F90346184607F10807BD4680BD91
:1045000090B583B000AF78607B68184600F060F922
:104510002346184607F10C07BD4690BD80B483B012
:1045200000AF78607B681B6803F11003184607F141
:104530000C07BD4680BC704780B584B000AFF86002
:10454000B9607A60B868796800F04CF9034618469B
:1045500007F11007BD4680BD80B483B000AF78601E
:1045600039607B681A683B681B689A4214BF002355
:104570000123DBB2184607F10C07BD4680BC70472B
:1045800080B584B000AFF860B9607A60FB68184607
:10459000B96818F0AFFFFB6803F1040318467968A7
:1045A00018F0A8FFFB68184607F11007BD4680BD4C
:1045B000FB68184618F0E6FD19F032F890B587B0A0
:1045C00000AFF860B9607A60FC6807F1140207F187
:1045D00008031046194600F017F9204679697A68F1
:1045E00000F022F90346184607F11C07BD4690BDAE
:1045F00080B584B000AF78607B68DB6807F10C029F
:104600001046194600F05EFAFB68184607F11007DD
:10461000BD4680BD80B584B000AF78607B6803F193
:10462000040307F10C021046194600F04BFAFB6830
:10463000184607F11007BD4680BD00BF80B483B0A7
:1046400000AF78607B68184607F10C07BD4680BC58
:10465000704700BFB0B582B000AF7860396078684D
:1046600018F02AFD03461C46386818F025FD03465D
:104670009C4218D1786818F017FD03461D4638682B
:1046800018F012FD03461C46786818F015FD034625
:10469000284621461A46FFF7FFF90346002B02D1B0
:1046A0004FF0010301E04FF00003184607F108073F
:1046B000BD46B0BD80B582B000AF7860786800F0CC
:1046C00011FA7B684FF000021A717B684FF000020C
:1046D0009A607B684FF00002DA607B684FF000025E
:1046E0001A617B684FF000025A61786800F008FA9E
:1046F0007B68184607F10807BD4680BD80B483B0CB
:1047000000AF78607B68184607F10C07BD4680BC97
:10471000704700BF80B483B000AF78607B68DB680F
:10472000184607F10C07BD4680BC704780B483B0C3
:1047300000AF78607B689B68184607F10C07BD46A0
:1047400080BC704780B584B000AF7860396007F1F5
:104750000C031846796800F0EFF93B6803F1100389
:104760001846FFF76BFF034607F10C021046194687
:1047700000F002FA07F10C03184600F0EFF9786830
:10478000396800F005FA07F11007BD4680BD07F152
:104790000C03184600F0E2F918F042FF90B583B020
:1047A00000AF786039607868FFF78EFE044678685D
:1047B00000F0FEF90346786821461A463B6800F08F
:1047C00005FA0346184607F10C07BD4690BD00BF29
:1047D00080B483B000AF7860184607F10C07BD467F
:1047E00080BC704780B582B000AF7860396078686F
:1047F000396818F067FC03464FEAD373DBB21846FA
:1048000007F10807BD4680BD80B483B000AF786073
:1048100039603B681A687B681A607B68184607F144
:104820000C07BD4680BC7047B0B592B000AFF860D1
:10483000B9607A60BC68F86800F0BAF903469C4237
:1048400014BF00230123DBB2002B3DD0F86800F039
:1048500023FA0346002B1CD0FD68F86800F0EEF93F
:1048600003461B68184600F0F7F903461C4607F19B
:104870001C031846796800F003FA034628462146CF
:104880001A46FFF759FE0346002B02D04FF00103F2
:1048900001E04FF00003002B0DD0F86800F0CEF9D6
:1048A00003461B68F8684FF000011A467B6800F069
:1048B000FFF9034600E107F120031846F9687A681A
:1048C00000F042FA3B6AF7E0FD6807F1280318465A
:1048D000796800F0D5F90446BB68184600F0BCF9C9
:1048E0000346284621461A46FFF726FE0346002BBC
:1048F00065D0BB68BB61BC68F86800F0D7FA0346B6
:104900001B689C4214BF00230123DBB2002B11D093
:10491000F86800F0CBFA03461C68F86800F0C6FAA5
:1049200003461B68F86821461A467B6800F0C0F908
:104930000346C1E0FD6807F11803184600F0C4FA09
:1049400003461B68184600F087F903461C4607F12A
:104950002C031846796800F093F90346284621464F
:104960001A46FFF7E9FD0346002B1FD0BB69184626
:1049700000F0BCFA0346002B14BF00230123DBB276
:10498000002B09D0BB69F8684FF000011A467B681C
:1049900000F08EF903468FE0BA68BB68F8681146EC
:1049A0001A467B6800F084F9034685E007F130037E
:1049B0001846F9687A6800F0C7F93B6B7CE0FD683F
:1049C000BB68184600F048F903461C4607F1380357
:1049D0001846796800F054F90346284621461A46DD
:1049E000FFF7AAFD0346002B60D0BB687B61BC6863
:1049F000F86800F023F903461B689C4214BF0023AB
:104A00000123DBB2002B0DD0F86800F017F9034644
:104A10001B68F8684FF000011A467B6800F048F9FF
:104A2000034649E0FD6807F13C031846796800F049
:104A300027F9044607F11403184600F063FA034609
:104A40001B68184600F008F90346284621461A4616
:104A5000FFF772FD0346002B1FD0BB68184600F01D
:104A600045FA0346002B14BF00230123DBB2002BC1
:104A700009D0BB68F8684FF000011A467B6800F067
:104A800017F9034618E07A697B69F86811461A46F7
:104A90007B6800F00DF903460EE007F1400318466D
:104AA000F9687A6800F050F93B6C05E007F10803FB
:104AB000184600F039FA0346184607F14807BD4684
:104AC000B0BD00BF80B483B000AF786039607B6850
:104AD0003A681A607B68184607F10C07BD4680BC2F
:104AE000704700BF80B582B000AF7860786800F092
:104AF0002DFA7B68184607F10807BD4680BD00BF48
:104B000080B483B000AF78607B684FF000021A7108
:104B10007B684FF000029A607B6803F104027B68B7
:104B2000DA607B6803F104027B681A6107F10C0705
:104B3000BD4680BC704700BF80B582B000AF7860D2
:104B40003960386800F00EFA03467868194600F0BC
:104B500015FA786807F10807BD4680BD80B582B0B8
:104B600000AF7860786800F017FA7B68184607F1A4
:104B70000807BD4680BD00BF80B582B000AF786039
:104B800039603868FFF756FB07F10807BD4680BD5E
:104B900080B582B000AF786039607B6818463968AC
:104BA0004FF0010200F004FA07F10807BD4680BD8E
:104BB00080B483B000AF78607B6803F104031846CB
:104BC00007F10C07BD4680BC704700BF90B587B0A9
:104BD00000AFF860B9607A603B601AE0FC68B868C2
:104BE00000F0F4F90346204619463A68FFF7A4FCA2
:104BF000034683F00103DBB2002B06D0BB687B6069
:104C0000B868FFF793FDB86003E0B868FFF782FD6E
:104C1000B860BB68002B0CBF00230123DBB2002B64
:104C2000DCD107F1140318467968FFF74BFF7B6965
:104C3000184607F11C07BD4690BD00BF80B483B085
:104C400000AF78607B6803F11003184607F10C078A
:104C5000BD4680BC704700BF80B584B000AF7860AF
:104C6000786800F0C7F9034607F10C0210461946B0
:104C700000F006F80346184607F11007BD4680BD50
:104C800080B483B000AF786039603B68184607F1A4
:104C90000C07BD4680BC704780B483B000AF78601D
:104CA0007B685B69184607F10C07BD4680BC7047FE
:104CB000B0B588B000AFF860B9607A603B60BB689F
:104CC000002B1AD1F868FFF773FF02467B689A42FF
:104CD00013D0FD6807F1100318463968FFF7D0FFBD
:104CE00004467868FFF7B8FF0346284621461A466F
:104CF000FFF722FC0346002B02D04FF0010301E036
:104D00004FF00003FB77F868396800F081F903463B
:104D1000BB61FB6803F10403FA7F1046B9697A6846
:104D200018F058F9FB685B6903F10102FB685A61EE
:104D300007F114031846B969FFF7C4FE7B691846EA
:104D400007F12007BD46B0BDB0B58EB000AFF8602A
:104D5000B9607A60B868FFF7B7FB7863B868FFF7A7
:104D600027FF38634FF0010387F82F3023E07B6B78
:104D70003B63BD6807F1140318467968FFF780FFAD
:104D80000446786B00F022F90346284621461A466D
:104D9000FFF7D2FB034687F82F3097F82F30002B10
:104DA00004D0786BFFF7C2FC034603E0786BFFF793
:104DB000B1FC03467B637B6B002B0CBF00230123FC
:104DC000DBB2002BD3D107F110031846396BFFF784
:104DD00079FE97F82F30002B2AD0B868FFF708FC2F
:104DE0000346BB6107F1100207F11803104619468C
:104DF000FFF7B2FB0346002B15D0B868796B3A6B0E
:104E00007B68FFF755FF0346FB614FF0010387F80E
:104E1000233007F11C0207F12303F86811461A46F4
:104E200000F034F93DE007F11003184600F044F9B2
:104E3000BD683B691846FFF70FFF03461C4607F1A4
:104E4000240318467968FFF71BFF034628462146CE
:104E50001A46FFF771FB0346002B15D0B868796B33
:104E60003A6B7B68FFF724FF0346BB624FF00103F8
:104E700087F82D3007F1280207F12D03F868114655
:104E80001A4600F003F90CE04FF0000387F82E30CB
:104E900007F1100207F12E03F86811461A4600F0D8
:104EA000F5F8F86807F13807BD46B0BD80B483B0A7
:104EB00000AF78607B6803F10C03184607F10C071C
:104EC000BD4680BC704700BF80B582B000AF78603F
:104ED0007B681B68184618F07BF802467B681A60EE
:104EE0007B68184607F10807BD4680BD80B483B0D3
:104EF00000AF78607B68DB68184607F10C07BD4699
:104F000080BC704780B582B000AF78607B681B685A
:104F1000184618F03BF802467B681A607B68184612
:104F200007F10807BD4680BD80B584B000AF78604A
:104F30007B681B6807F10C0210461946FFF7C2FD9B
:104F4000FB68184607F11007BD4680BD80B483B0EA
:104F500000AF78607B68184607F10C07BD4680BC3F
:104F6000704700BF80B483B000AF78607B6818469C
:104F700007F10C07BD4680BC704700BF80B582B00A
:104F800000AF78603960786800F0A8F87B68184650
:104F900007F10807BD4680BD80B483B000AF7860DC
:104FA0007B68184607F10C07BD4680BC704700BF00
:104FB00080B584B000AFF860B9607A60B86819F065
:104FC000E9F807F11007BD4680BD00BF80B584B089
:104FD00000AF7860786800F08DF8034607F10C02A6
:104FE00010461946FFF74CFE0346184607F1100716
:104FF000BD4680BD80B483B000AF78607B6803F1AC
:105000001003184607F10C07BD4680BC704700BF6F
:1050100090B585B000AF78603960786800F078F8B6
:105020000346FB6007F1080318467968FFF784FD23
:10503000FB6803F110031846FFF700FB034607F176
:105040000802104619463A6800F096F807F108037E
:105050001846FFF783FDFB68184607F11407BD46A5
:1050600090BD044607F108031846FFF777FD234675
:10507000184618F0F3FF7868F968FFF789FD19F012
:10508000EFF819F02FF818F0CBFA00BF80B485B014
:1050900000AFF860B9607A60FB68BA6812681A609D
:1050A0007B681A78FB681A71FB68184607F11407C9
:1050B000BD4680BC704700BF80B582B000AF78604D
:1050C0007B681B68184617F063FF02467B681A600E
:1050D0007B68184607F10807BD4680BD80B483B0E1
:1050E00000AF78607B68184607F10C07BD4680BCAE
:1050F000704700BF80B483B000AF78607B6803F175
:105100001003184607F10C07BD4680BC704700BF6E
:1051100080B582B000AF78607B6818464FF001011F
:105120004FF0000200F046F80346184607F1080762
:10513000BD4680BD80B582B000AF786039607A68C6
:105140003B681046194618F0D5F97B6803F1040254
:105150003B6803F104031046194618F0CBF97B684D
:10516000184607F10807BD4680BD7B68184618F051
:1051700009F818F055FA00BFB0B584B000AFF86078
:10518000B9607A60BD684FF008002946FEF796FCCA
:105190000446002C0AD020467968FFF7CBFF05E0D3
:1051A00020462946FEF796FC18F03AFA07F1100758
:1051B000BD46B0BD80B584B000AFF860B9607A601C
:1051C000F86800F01BF80246BB689A422CBF002327
:1051D0000123DBB2002B01D017F0E0FCBA681346C4
:1051E0004FEA43039B184FEAC303184618F00CFB21
:1051F0000346184607F11007BD4680BD80B483B052
:1052000000AF78604AF6AA23C0F6AA23184607F131
:105210000C07BD4680BC704780B483B000AF786097
:10522000396007F10C07BD4680BC704780B485B07B
:1052300000AFF860B9607A60184607F11407BD4600
:1052400080BC704780B485B000AFF860B9607A6008
:10525000184607F11407BD4680BC704780B485B07E
:1052600000AFF860B9607A60184607F11407BD46D0
:1052700080BC704780B483B000AF78607B68044A1C
:105280001A607B68184607F10C07BD4680BC704762
:1052900018FC020090B587B004AF7860F970BA705E
:1052A0007B707B681846FFF7E5FF7B680E4A1A6043
:1052B0007B6803F1040097F9031097F9022097F92E
:1052C000013097F918400094FC6901944FF00004F4
:1052D00002943C6A039409F0F7FC7B68184607F1D6
:1052E0000C07BD4690BD00BFE0FB020080B582B058
:1052F00000AF786039607B6803F1040318463968B1
:1053000009F0B2FF07F10807BD4680BD80B586B041
:1053100000AF7860396007F1080318464FF6C831CE
:10532000C0F202013A6822F04FFB7B681B6803F170
:1053300010031B6807F1080278681146984707F1C7
:105340001807BD4680BD00BF80B586B000AF78604D
:10535000396007F1080318464FF6C831C0F2020160
:105360003A6822F031FB7B681B6803F110031B686D
:1053700007F1080278681146984707F11807BD46FB
:1053800080BD00BF80B586B000AF786039603868F6
:105390001EF052F802460B4607F1080108464FF688
:1053A000CC31C0F2020122F00FFB7B681B6803F1D5
:1053B00010031B6807F1080278681146984707F147
:1053C0001807BD4680BD00BF80B582B000AF7860D1
:1053D0000B46FB707B6803F10402FB78104619460C
:1053E00009F060FF07F10807BD4680BD80B582B0B7
:1053F00000AF78600B46FB707B6803F10402FB781A
:105400001046194609F04EFF07F10807BD4680BD5A
:1054100080B582B000AF78603960786800F02CF811
:105420000346DAB23B681A7007F10807BD4680BD33
:1054300080B582B000AF78603960786800F01CF801
:105440000346DAB23B681A7007F10807BD4680BD13
:1054500080B584B000AFF860B9607A60FB6803F192
:1054600004031846B9687A6809F0D8FE184607F1AF
:105470001007BD4680BD00BF80B582B000AF786028
:105480007B6803F10403184609F082FF03461846BF
:1054900007F10807BD4680BD80B584B000AF7860D5
:1054A00040F65013C1F200031B68184601F0AAFF32
:1054B00040F63413C1F200031B68FB6040F634135E
:1054C000C1F200031A68FB68D21A7B689A422CBFAB
:1054D00000230123DBB2002BF0D140F65013C1F2C0
:1054E00000031B68184601F07FFF07F11007BD4657
:1054F00080BD00BF80B483B000AF78607B681B784C
:10550000184607F10C07BD4680BC704780B483B0D5
:1055100000AF78607B685B78184607F10C07BD46E2
:1055200080BC704780B582B000AF78607B68184659
:1055300000F0A2F97B6803F10C03184600F0CAF9E9
:105540007B68184607F10807BD4680BD7B68184692
:1055500000F0A0F918F064F890B58BB002AFF860D5
:10556000B9607A60FB68BA681A60FB687A685A604A
:10557000FB6803F10803184609F026F9FB684FF0B1
:1055800000025A61FB684FF000029A6145F279739C
:10559000C0F200037B614FF00003BB61BB69009365
:1055A0007B6978684FF01501FA6800F0C5F9B868B2
:1055B000FFF7A0FF03461C46B868FFF7A7FF0346A6
:1055C0004FF0010202FA03F3204619464FF00002A1
:1055D00014F084FCB868FFF78DFF03461C46B868DA
:1055E000FFF794FF03464FF0010202FA03F320464F
:1055F00019464FF0010214F071FC4FF01503FB77D0
:105600004FF46143CEF2000397F91F204FEA521284
:10561000F97F01F01F014FF0010000FA01F143F89A
:105620002210FB68184607F12407BD4690BDFB68B1
:1056300003F10803184609F01BF917F0F1FF00BF4A
:1056400080B584B000AF7860786800F051F8034608
:10565000FB60FB68002B01D10C4B12E0F8681EF0D8
:10566000DFFA034618460A491EF0E6FB03460948DE
:1056700019461EF0E1FB0346184607491EF028FBB9
:105680000346184607F11007BD4680BD0000000024
:10569000002474490000803F0000704290B585B03E
:1056A00000AF7860786800F023F80346FB60786804
:1056B00000F040F80346BB60FB68002B02D0BB68DB
:1056C000002B01D1094B0CE0B8681EF0A9FA044682
:1056D000F8681EF0A5FA0346204619461EF0ACFBFA
:1056E0000346184607F11407BD4690BD00000000B0
:1056F00080B582B000AF78607B6803F1080318467C
:1057000009F03CF903461A464AF22013C0F2070397
:105710009A4294BF00230123DBB2002B02D04FF04A
:10572000000301E07B685B69184607F10807BD4686
:1057300080BD00BF80B582B000AF78607B6803F1A8
:105740000803184609F01AF903461A464AF22013CC
:10575000C0F207039A4294BF00230123DBB2002B5F
:1057600002D04FF0000301E07B689B69184607F107
:105770000807BD4680BD00BF90B585B000AF78601A
:105780007B681B681846FFF7B5FE03461C467B681E
:105790001B681846FFF7BAFE0346204619464FF02D
:1057A000010214F057FC0346002B0CBF0023012319
:1057B000DBB2002B03D04FF00003FB731DE07B68CE
:1057C0001B681846FFF796FE03461C467B681B685D
:1057D0001846FFF79BFE0346204619464FF000028D
:1057E00014F038FC0346002B0CBF00230123DBB26E
:1057F000002B3CD04FF00103FB737B681B681846FD
:10580000FFF778FE03461C467B681B681846FFF7C7
:105810007DFE03464FF0010202FA03F320461946CB
:1058200014F074FCFB7B83F00103DBB2002B10D07F
:105830007B6803F10803184609F0A0F803461A46EE
:105840007B685A617B6803F10803184609F054F835
:105850000EE0FB7B002B0BD07B6803F1080318469E
:1058600009F08CF803461A467B689A6100E000BF95
:1058700007F11407BD4690BD80B582B000AF7860D7
:105880007B68184600F0B0F87B68184607F10807F7
:10589000BD4680BDB0B582B000AF78607B681D6842
:1058A0007B685C687B68184600F0D0F803462846A1
:1058B00021461A4600F0D6F8786800F0A3F87B6815
:1058C000184607F10807BD46B0BD786800F09AF8A1
:1058D00017F0A6FE80B582B000AF78607B681846EE
:1058E00000F0CEF87B68184607F10807BD4680BD7A
:1058F00080B483B000AF78607B685B681A467B68D1
:105900001B68D31A4FEAA303184607F10C07BD46DC
:1059100080BC704780B483B000AF786039607B682A
:105920001A683B684FEA8303D318184607F10C073F
:10593000BD4680BC704700BF82B090B585B000AF57
:10594000F8607A607B620B46FB727B6A002B04D1A5
:10595000BB6A03F00103002B2FD07B68002B2CD0F7
:10596000FA6897F90B304FEA8303D3181B68002BB2
:105970000FD14FF0180017F047FF03461C46204692
:10598000FFF7D0FDFA6897F90B304FEA8303D3187D
:105990001C60FA6897F90B304FEA8303D3181B6831
:1059A0001846796807F124030CCB00F077F805E07E
:1059B000204618F0EFFB17F033FE00BF07F1140785
:1059C000BD46BDE8904002B0704700BF80B582B0D0
:1059D00000AF7860786800F0ABF87B68184607F194
:1059E0000807BD4680BD00BF80B582B000AF7860BB
:1059F0007B68184600F082F87B68184607F10807B4
:105A0000BD4680BD80B582B000AF78607B681A6803
:105A10007B689B6819467B681B68CB1A4FEAA30317
:105A2000786811461A4600F091F87B681846FFF72F
:105A3000CDFF7B68184607F10807BD4680BD7B682F
:105A40001846FFF7C3FF17F0EBFD00BF80B483B02B
:105A500000AF78607B68184607F10C07BD4680BC34
:105A6000704700BF80B584B000AFF860B9607A605D
:105A7000F868B96800F07EF807F11007BD4680BDF0
:105A800080B582B000AF78607B68184600F080F87F
:105A90007B68184607F10807BD4680BD90B587B002
:105AA00000AFF860B960394681E80C00BB68002B94
:105AB00020D03B68002B04D17B6803F00103002B4E
:105AC00018D04FF0100017F09FFE03461C462046EA
:105AD00000F088F87C617869B9683B460CCB00F02F
